:100B9F00015C00015D03016003016103025A000063
:030BAF00016200E0
:10056100120B84120BE6C2807FAA7E051208CF7F90
:10057100FF12000E7FFF12000E7FFF12000E7FFFA1
:1005810012000E7FFF12000E7FF47E011208CF7F52
:10059100FF12000E7FFF12000E7FFF12000E7FFF81
:1005A10012000E7FFF12000E7FAA7E051208CF7F78
:1005B100FF12000E7FFF12000E7FFF12000E7FFF61
:1005C10012000E7FFF12000EE55C70030206EEFFC3
:1005D1003395E0FEEF64014E7005120B358F5CAF71
:1005E1005CEF3395E0FEEF64024E70DC75610375DC
:1005F1005D037F3212000E120A638E5E8F5FD3E5B8
:100601005F9423E55E94004004055D8002155DD58D
:1006110061E0AF5DEF3395E0FED3EF9403EE6480CC
:10062100948040047F0080027F018F5D75610375B6
:1006310060037F3212000E120AAA8E5E8F5FD3E52D
:100641005F9423E55E94004004056080021560D547
:1006510061E0AF60EF3395E0FED3EF9403EE648089
:10066100948040047F0080027F018F60055BE55B21
:100671007002055AD39464E55A94004008120C089C
:10068100E4F55AF55BAF5DEF3395E0FEEF64014EA3
:100691007011AE5AAF5BFC7D14120204ED4C700375
:1006A100120BF8120C18EF600D7FF47E011208CFC7
:1006B1007562010205C9AF62EF3395E0FEEF640197
:1006C1004E60030205C9AF5DEF3395E04F60030251
:1006D10005C9AF60EF3395E04F60030205C97FDCC8
:1006E1007E051208CFE4F562C2800205C912033506
:0606F100755C010205C961
:060BB2000109000108002A
:100B840053877F75985053890F438920758BFD7562
:0B0B94008DFDC2ABD28ED2ACD2AF22DE
:080003008F993099FDC299228A
:100B62008B678A688969ED6018AB670569E569AAD0
:100B7200687002056814F91201EBFF1200031D8070
:020B8200E5226A
:0D0C1800E5086006E4F5087F01227F002258
:030023000209FAD5
:1009FA00C0E0C0F0C0D075D000C000309852C29894
:100A0A00740A2509F8A699740A2509F8E6647D701E
:100A1A003474092509F8E66431702A74082509F83E
:100A2A00E6643A702074072509F8E6B422177406BA
:100A3A002509F8E6B4650E74052509F8E6B47405C7
:100A4A00D2807508010509E50975F0508485F00919
:090A5A00D000D0D0D0F0D0E03281
:100817002B2B2B0041542B43574D4F44453D310D56
:100827000A0041542B5253540D0A0041542B43578D
:100837004A41503D226C697572796C222C22313203
:1008470033333231313233220D0A0041542B4349BD
:100857005053544152543D22544350222C2261316B
:1008670072545A4B716F4534652E696F742D6173DD
:100877002D6D7174742E636E2D7368616E67686178
:10088700692E616C6979756E63732E636F6D222CA7
:10089700313838330D0A0041542B4349504D4F44EA
:1008A700453D310D0A0041542B43495053454E44B1
:1008B7000D0A00FF0817FF081BFF0829FF0832FF72
:0808C7000852FF089EFF08AD76
:100335007509019008BAE493FB740193FA7402936A
:10034500F97D03120B627FFF12000E7FFF12000E74
:100355007FFF12000E7509019008BDE493FB74013F
:1003650093FA740293F97D0F120B627FFF12000E50
:100375007FFF12000E7FFF12000E7FFF12000E742A
:10038500062509F8E6B44FCD74072509F8E6644B50
:10039500600A74082509F8E6640D70B97409250921
:1003A500F8E6640A70AF7509019008C0E493FB7420
:1003B5000193FA740293F97D0A120B627FFF120012
:1003C5000E7FFF12000E7FFF12000E7FFF12000E40
:1003D50074062509F8E6646470CC74072509F8E607
:1003E500647970C274082509F8E6640D70B874095B
:1003F5002509F8E6640A70AE7509019008C3E4930F
:10040500FB740193FA740293F97D26120B627FFF48
:1004150012000E7FFF12000E7FFF12000E7FFF12EB
:10042500000E7FFF12000E7FFF12000E7FFF1200ED
:100435000E7FFF12000E7FFF12000E7FFF12000ECF
:100445007FFF12000E7FFF12000E74062509F8E6E5
:10045500B44FA574072509F8E6644B600A740825AE
:1004650009F8E6640D709174092509F8E6640A70C7
:10047500877509019008C6E493FB740193FA740229
:1004850093F97D4D120B627FFF12000E7FFF120064
:100495000E7FFF12000E7FFF12000E74062509F86D
:1004A500E6B44FCD74072509F8E6644B600A740875
:1004B5002509F8E6640D70B974092509F8E6640A9A
:1004C50070AF7509019008C9E493FB740193FA7440
:1004D5000293F97D10120B627FFF12000E7FFF124F
:1004E500000E7FFF12000E7FFF12000E7406250915
:1004F500F8E6B44FCD74072509F8E6644B600A7435
:10050500082509F8E6640D70B974092509F8E6644B
:100515000A70AF7509019008CCE493FB740193FA56
:10052500740293F97D0E120B627FFF12000E7FFF9E
:1005350012000E7FFF12000E7FFF12000E740725BA
:1005450009F8E6640D70CC74082509F8E6640A70AC
:0C055500C274092509F8E6643E70B82263
:1006F700107E00044D51545404C2003C00332E2E8A
:100707002E7C7365637572656D6F64653D332C73FD
:1007170069676E6D6574686F643D686D6163736862
:1007270061312C74696D657374616D703D3738394B
:100737007C001364616F7A686131266765796C554F
:100747006B7A5263495100286662326135363261ED
:10075700303562656364663634333338333932642F
:1007670036393330393839663433653034393033D4
:10077700309B0100322F7379732F6765796C556B46
:100787007A526349512F64616F7A6861312F7468B7
:10079700696E672F6576656E742F70726F706572FC
:1007A70074792F706F73747B226964223A22313215
:1007B70033343536373839222C2276657273696FB0
:1007C7006E223A22312E30222C22706172616D73B3
:1007D700223A7B224D6F74696F6E416C61726D5363
:1007E70074617465223A317D2C226D6574686F647B
:1007F700223A227468696E672E6576656E742E706C
:10080700726F70657274792E706F7374227DC00079
:100B3500E4F5097BFF7A0679F77D80120B62E509FA
:100B450060FC7F3212000EE509640470E3E50A6477
:0D0B55002070DDE50D70037F02227F00227D
:100BF8007BFF7A0779777D9E120B627F3202000EA7
:100C08007BFF7A0879157D02120B627F3202000E93
:100BB900DFFEDFFEDFFEDFFEDFFEDFFEDFFEDFFE44
:090BC900DFFEDFFEDFFEDFFE228D
:10000E00AE07AF061EEF600C7FF5120BB97FF5122F
:05001E000BB980EE2289
:100A6300E4F567F568D2957F0C120BB9C295309601
:100A7300FDD28C2096FDC28CAF8CEFFEAD8A7C003C
:100A8300E42DF568EC3EF567E4F58CF58AAC67ADCB
:100A9300681201317B967A43798B783C12002612D7
:060AA300016A8E678F68F6
:010AA900222A
:100AAA00E4F567F568D2A57F0C120BB9C2A530A68A
:100ABA00FDD28C20A6FDC28CAF8CEFFEAD8A7C00E5
:100ACA00E42DF568EC3EF567E4F58CF58AAC67AD84
:100ADA00681201317B967A43798B783C1200261290
:060AEA00016A8E678F68AF
:010AF00022E3
:100BE6005389F0438901C295C2A5E4F58CF58AC202
:020BF6008C224F
:1008CF008E678F68AB07AA06E4C39BFFE49AFE749A
:1008DF00019400FDE49400FCE4FB7A01F9F8120A9C
:1008EF00F18F63AE67AF68AB07AA06E4C39BFFE463
:1008FF009AFE74019400FDE49400FCE4FB7A01F984
:10090F00F8120AF1AF038F65E56824C8FFE5673475
:10091F00B5FEE433FDE433FCE4FB7A01F9F8120A87
:10092F00F18F64E56824C8FFE56734B5FEE433FD55
:10093F00E433FCE4FB7A01F9F8120AF1AF038F6696
:10094F00D2AFD2A9D28C7FDE12000E7FDE12000E44
:0F095F007FDE12000EC2A9C28CE4F58CF58A224D
:03000B00020BD213
:100BD20030930885648C85668A800685638C85657A
:040BE2008AB293320E
:10002600EC4D6011E8497017ED33EC3304600DE4D4
:10003600FCFFFEFD22E933E8330470F80201D61214
:1000460001A158046009E4CC248150062850090215
:1000560001E02840030201DDC0E0EB4A7044B980AC
:1000660006D0E0FB0201CCEF4E701CBD8008EBFF12
:10007600EAFEE9FD80EBE98DF0A4FEE5F002010F52
:10008600E9CDF9EAFEEBFFEF89F0A4FCE5F0CE89B5
:10009600F0A42EFFE435F0CD89F0A42DFEE435F072
:1000A6008067EF4E7005BD80D780C3EF8BF0A4ACA0
:1000B600F0EE8BF0A42CFCE435F0F8EF8AF0A42CDB
:1000C600E5F038FCE433CB8DF0A42CFCE5F03BF8EE
:1000D600EE8AF0A42CFCE5F038F8E433CF89F0A4DE
:1000E6002CFCE5F038CF3400CE89F0A42FFFE5F0E4
:1000F6003EFEE433C98DF0A42EFEE5F039CD8AF03C
:10010600A42FFFE5F03EFEE43DFD33D0E0FB5007B3
:100116000BBB000F0201E0EC2CFCEF33FFEE33FECD
:06012600ED33FD0201B8FB
:10012C0075F020800E75F010800575F0087D007E4E
:10013C00007F003392D530D503120259EC334010B6
:10014C00EF33FFEE33FEED33FDEC33FCD5F0ED2257
:0E015C00E5F0247EA2D513CC92E7CDCEFF2293
:10016A00EDD2E7CD33EC3392D524814006E4FFFE8D
:10017A00FDFC22FCE4CFCECDCC24E0501174FF80EC
:10018A00EDC3CC13CCCD13CDCE13CECF13CF047089
:07019A00F030D5DE0202592E
:1001A100E9D2E7C933E833F892D5EDD2E7CD33ECA4
:0701B10033FC5002B2D5221D
:1001B800EC30E7100FBF000C0EBE00080DBD0004A8
:1001C8000BEB6014A2D5EB13FCED92E7FD2274FF54
:1001D800FCFDFEFF22E480F8A2D574FF13FC7D80AD
:0301E800E480EFC1
:0300000002096E84
:0C096E00787FE4F6D8FD7581690209B5B8
:1001EB00BB010689828A83E0225002E722BBFE0212
:0901FB00E32289828A83E4932245
:10020400BC000BBE0029EF8DF084FFADF022E4CCDE
:10021400F875F008EF2FFFEE33FEEC33FCEE9DECA7
:10022400984005FCEE9DFE0FD5F0E9E4CEFD22EDED
:10023400F8F5F0EE8420D21CFEADF075F008EF2F37
:10024400FFED33FD4007985006D5F0F222C398FD28
:050254000FD5F0EA22C5
:100AF100C2D5E830E70FB2D5E4C39BFBE49AFAE430
:100B010099F9E498F8EC30E717B2D5120B271202E5
:100B1100A3E4C39BFBE49AFAE499F9E498F880030F
:100B21001202A330D50DE4C39FFFE49EFEE49DFDB8
:040B3100E49CFC2222
:0E025900C3E49FFFE49EFEE49DFDE49CFC22B6
:10097A00020561E493A3F8E493A34003F68001F22D
:10098A0008DFF48029E493A3F85407240CC8C3337E
:10099A00C4540F4420C8834004F456800146F6DF4D
:1009AA00E4800B0102040810204080900B9FE47E33
:1009BA00019360BCA3FF543F30E509541FFEE49342
:1009CA00A360010ECF54C025E060A840B8E493A309
:1009DA00FAE493A3F8E493A3C8C582C8CAC583CA34
:1009EA00F0A3C8C582C8CAC583CADFE9DEE780BEEC
:010BB800003C
:1002670075F008758200EF2FFFEE33FECD33CDCC4E
:1002770033CCC58233C5829BED9AEC99E5829840D1
:100287000CF582EE9BFEED9AFDEC99FC0FD5F0D6AE
:10029700E4CEFBE4CDFAE4CCF9A88222B800C1B9D8
:1002A7000059BA002DEC8BF084CFCECDFCE5F0CB16
:1002B700F97818EF2FFFEE33FEED33FDEC33FCEB4F
:1002C70033FB10D703994004EB99FB0FD8E5E4F90A
:1002D700FA227818EF2FFFEE33FEED33FDEC33FCF7
:1002E700C933C910D7059BE99A4007EC9BFCE99AEB
:1002F700F90FD8E0E4C9FAE4CCFB2275F010EF2F30
:10030700FFEE33FEED33FDCC33CCC833C810D7072F
:100317009BEC9AE899400AED9BFDEC9AFCE899F86A
:0E0327000FD5F0DAE4CDFBE4CCFAE4C8F922FD
:00000001FF
