:1008C400016F00017003017303017403026D0000E2
:1006B700120003120911E56F7003020759FF339502
:1006C700E0FEEF64014E70051208358F6FAF6FEFD4
:1006D7003395E0FEEF64024E70DC757403757003AA
:1006E7007F321208AF1207EE8E718F72D3E57294C4
:1006F70023E57194004004057080021570D574E0FD
:10070700AF70EF3395E0FED3EF9403EE64809480EF
:1007170040047F0080027F018F70E5706573601071
:10072700E57060071208D8C28780051208EBD287E8
:10073700857073056EE56E7002056DD39478E56D6F
:10074700940050030206BD1208FEE4F56DF56E0233
:0B07570006BD120026756F010206BDF2
:0308D40001080018
:1000030053877F75985053890F438920758BFD75EE
:0B0013008DFDC2ABD28ED2ACD2AF226A
:080921008F993099FDC2992263
:10088D008B758A768977ED6018AB750577E577AA54
:10089D00767002057614F9120417FF1209211D80D6
:0208AD00E52242
:030023000208626E
:10086200C0E0C0F0C0D075D000C000309814C2986B
:1008720074092508F8A6990508E50875F0648485C9
:0B088200F008D000D0D0D0F0D0E03261
:1005FA002B2B2B0041542B43574D4F44453D310D76
:10060A000A0041542B5253540D0A0041542B4357AC
:10061A004A41503D2253686959616E5368693330C3
:10062A0034222C223834383332323635220D0A003D
:10063A0041542B43495053544152543D2254435040
:10064A00222C22613172545A4B716F4534652E69DE
:10065A006F742D61732D6D7174742E636E2D7368B2
:10066A00616E676861692E616C6979756E63732E54
:10067A00636F6D222C313838330D0A0041542B43F5
:10068A0049504D4F44453D310D0A0041542B4349D1
:10069A005053454E440D0A00FF05FAFF05FEFF06BA
:0D06AA000CFF0615FF063AFF0686FF0695B9
:100026007508019006A2E493FB740193FA74029397
:10003600F97D0312088D7FFF1208AF7FFF1208AF0C
:100046007FFF1208AF7508019006A5E493FB7401C3
:1000560093FA740293F97D0F12088D7FFF1208AF91
:100066007FFF1208AF7FFF1208AF7FFF1208AF7441
:10007600052508F8E6B44FCD74062508F8E6644B66
:10008600600A74072508F8E6640D70B97408250837
:10009600F8E6640A70AF7508019006A8E493FB744D
:1000A6000193FA740293F97D0A12088D7FFF1208F4
:1000B600AF7FFF1208AF7FFF1208AF7FFF1208AFB6
:1000C60074052508F8E6646470CC74062508F8E61D
:1000D600647970C274072508F8E6640D70B8740870
:1000E6002508F8E6640A70AE7508019006ABE4933D
:1000F600FB740193FA740293F97D2612088D7FFF33
:100106001208AF7FFF1208AF7FFF1208AF7FFF1202
:1001160008AF7FFF1208AF7FFF1208AF7FFF1208FC
:10012600AF7FFF1208AF7FFF1208AF7FFF1208AF45
:100136007FFF1208AF7FFF1208AF74052508F8E6A7
:10014600B44FA574062508F8E6644B600A740725C3
:1001560008F8E6640D709174082508F8E6640A70DC
:10016600877508019006AEE493FB740193FA740256
:1001760093F97D4D12088D7FFF1208AF7FFF12089D
:10018600AF7FFF1208AF7FFF1208AF74052508F88E
:10019600E6B44FCD74062508F8E6644B600A74078A
:1001A6002508F8E6640D70B974082508F8E6640AAF
:1001B60070AF7508019006B1E493FB740193FA746D
:1001C6000293F97D1012088D7FFF1208AF7FFF1290
:1001D60008AF7FFF1208AF7FFF1208AF740525082E
:1001E600F8E6B44FCD74062508F8E6644B600A7449
:1001F600072508F8E6640D70B974082508F8E66462
:100206000A70AF7508019006B4E493FB740193FA83
:10021600740293F97D0E12088D7FFF1208AF7FFFDF
:100226001208AF7FFF1208AF7FFF1208AF740625D2
:1002360008F8E6640D70CC74072508F8E6640A70C1
:0C024600C274082508F8E6643E70B82277
:10043E00107C00044D51545404C2003C00336F70C4
:10044E00717C7365637572656D6F64653D332C7376
:10045E0069676E6D6574686F643D686D616373681E
:10046E0061312C74696D657374616D703D37383907
:10047E007C0011687767793426613172545A4B715A
:10048E006F45346500283961323338663737653742
:10049E006161633661333136323637376235343027
:1004AE003331633933373235353138313731309B6B
:1004BE000100302F7379732F613172545A4B716F63
:1004CE004534652F68776779342F7468696E672FA6
:1004DE006576656E742F70726F70657274792F7099
:1004EE006F73747B226964223A223132333435368B
:1004FE00373839222C2276657273696F6E223A2252
:10050E00312E30222C22706172616D73223A7B097A
:10051E00224D6F74696F6E416C61726D53746174AC
:10052E0065223A302C7D2C226D6574686F64223AF8
:10053E00227468696E672E6576656E742E70726FA2
:10054E0070657274792E706F7374227D309B01000A
:10055E00302F7379732F613172545A4B716F45344A
:10056E00652F68776779342F7468696E672F6576A3
:10057E00656E742F70726F70657274792F706F73F1
:10058E00747B226964223A2231323334353637385D
:10059E0039222C2276657273696F6E223A22312EC1
:1005AE0030222C22706172616D73223A7B09224DCA
:1005BE006F74696F6E416C61726D537461746522F4
:1005CE003A312C7D2C226D6574686F64223A227448
:1005DE0068696E672E6576656E742E70726F7065C3
:0C05EE007274792E706F7374227DC0004F
:10083500E4F5087BFF7A04793E7D7E12088DE50894
:1008450060FC7F321208AFE508640470E3E50964D3
:0D0855002070DDE50C70037F02227F002281
:1008D800E4F5087BFF7A05795A7D9E12088D7F32F0
:0308E8000208AF54
:1008EB00E4F5087BFF7A0479BC7D9E12088D7F327C
:0308FB000208AF41
:1008FE00E4F5087BFF7A0579F87D0212088D7F32C8
:03090E000208AF2D
:03001E00DFFE22E0
:1008AF00AE07AF061EEF600C7FF512001E7FF5122C
:0508BF00001E80EE2286
:1007EE00E4F575F576D2A57F0C12001EC2A530A4D5
:1007FE00FDD28C20A4FDC28CAF8CEFFEAD8A7C00A6
:10080E00E42DF576EC3EF575E4F58CF58AAC75AD18
:10081E007612035D7B967A43798B783C12025212E4
:06082E0003968E758F7623
:0108340022A1
:100911005389F0438901C2A5E4F58CF58AC28C2282
:10025200EC4D6011E8497017ED33EC3304600DE4A6
:10026200FCFFFEFD22E933E8330470F802040212B7
:1002720003CD58046009E4CC2481500628500902B9
:10028200040C284003020409C0E0EB4A7044B98020
:1002920006D0E0FB0203F8EF4E701CBD8008EBFFB6
:1002A200EAFEE9FD80EBE98DF0A4FEE5F002033BF6
:1002B200E9CDF9EAFEEBFFEF89F0A4FCE5F0CE8987
:1002C200F0A42EFFE435F0CD89F0A42DFEE435F044
:1002D2008067EF4E7005BD80D780C3EF8BF0A4AC72
:1002E200F0EE8BF0A42CFCE435F0F8EF8AF0A42CAD
:1002F200E5F038FCE433CB8DF0A42CFCE5F03BF8C0
:10030200EE8AF0A42CFCE5F038F8E433CF89F0A4AF
:100312002CFCE5F038CF3400CE89F0A42FFFE5F0B5
:100322003EFEE433C98DF0A42EFEE5F039CD8AF00D
:10033200A42FFFE5F03EFEE43DFD33D0E0FB500785
:100342000BBB000F02040CEC2CFCEF33FFEE33FE70
:06035200ED33FD0203E49F
:1003580075F020800E75F010800575F0087D007E20
:10036800007F003392D530D503120430EC334010AF
:10037800EF33FFEE33FEED33FDEC33FCD5F0ED2229
:0E038800E5F0247EA2D513CC92E7CDCEFF2265
:10039600EDD2E7CD33EC3392D524814006E4FFFE5F
:1003A600FDFC22FCE4CFCECDCC24E0501174FF80BE
:1003B600EDC3CC13CCCD13CDCE13CECF13CF04705B
:0703C600F030D5DE02043027
:1003CD00E9D2E7C933E833F892D5EDD2E7CD33EC76
:0703DD0033FC5002B2D522EF
:1003E400EC30E7100FBF000C0EBE00080DBD00047A
:1003F4000BEB6014A2D5EB13FCED92E7FD2274FF26
:10040400FCFDFEFF22E480F8A2D574FF13FC7D807E
:03041400E480EF92
:0300000002076292
:0C076200787FE4F6D8FD7581770207A9C6
:10041700BB010689828A83E0225002E722BBFE02E3
:09042700E32289828A83E4932216
:0E043000C3E49FFFE49EFEE49DFDE49CFC22DD
:10076E000206B7E493A3F8E493A34003F68001F2E4
:10077E0008DFF48029E493A3F85407240CC8C3338C
:10078E00C4540F4420C8834004F456800146F6DF5B
:10079E00E4800B01020408102040809008C4E47E1F
:1007AE00019360BCA3FF543F30E509541FFEE49350
:1007BE00A360010ECF54C025E060A840B8E493A317
:1007CE00FAE493A3F8E493A3C8C582C8CAC583CA42
:1007DE00F0A3C8C582C8CAC583CADFE9DEE780BEFA
:0108D7000020
:00000001FF
